{
  "contractName": "Stakeable",
  "abi": [
    {
      "inputs": [],
      "stateMutability": "nonpayable",
      "type": "constructor"
    },
    {
      "anonymous": false,
      "inputs": [
        {
          "indexed": true,
          "internalType": "address",
          "name": "user",
          "type": "address"
        },
        {
          "indexed": false,
          "internalType": "uint256",
          "name": "amount",
          "type": "uint256"
        },
        {
          "indexed": false,
          "internalType": "uint256",
          "name": "index",
          "type": "uint256"
        },
        {
          "indexed": false,
          "internalType": "uint256",
          "name": "timestamp",
          "type": "uint256"
        }
      ],
      "name": "Staked",
      "type": "event"
    },
    {
      "inputs": [
        {
          "internalType": "address",
          "name": "sender",
          "type": "address"
        }
      ],
      "name": "stakedBalanceOf",
      "outputs": [
        {
          "internalType": "uint256",
          "name": "",
          "type": "uint256"
        }
      ],
      "stateMutability": "view",
      "type": "function"
    }
  ],
  "bytecode": "0x608060405234801561001057600080fd5b506000600181600181540180825580915050039060005260206000209050506101238061003e6000396000f3fe6080604052348015600f57600080fd5b506004361060285760003560e01c80631676539114602d575b600080fd5b606c60048036036020811015604157600080fd5b81019080803573ffffffffffffffffffffffffffffffffffffffff1690602001909291905050506082565b6040518082815260200191505060405180910390f35b600080600160008473ffffffffffffffffffffffffffffffffffffffff1673ffffffffffffffffffffffffffffffffffffffff1681526020019081526020016000205490506000818154811060d357fe5b90600052602060002090600302016001015491505091905056fea26469706673582212208ec1755839a0a98b9a2bcfe79ea0f5c27250002dac4441c5080aacaf28ef12d964736f6c63430007000033",
  "immutableReferences": {},
  "source": "// SPDX-License-Identifier: MIT\npragma solidity ^0.7.0;\n\n/**\n * @notice Stakeable is a contract who is ment to be inherited by other contract that wants Staking capabilities\n */\ncontract Stakeable {\n    constructor() {\n        // This push is needed so we avoid index 0 causing bug of index-1\n        stakeholders.push();\n    }\n\n    struct Stakeholder {\n        address user;\n        uint256 amount;\n        uint256 since;\n    }\n\n    Stakeholder[] internal stakeholders;\n    mapping(address => uint256) internal stakes;\n\n    event Staked(\n        address indexed user,\n        uint256 amount,\n        uint256 index,\n        uint256 timestamp\n    );\n\n    function _addStakeholder(address staker) internal returns (uint256) {\n        // Push a empty item to the Array to make space for our new stakeholder\n        stakeholders.push();\n        // Calculate the index of the last item in the array by Len-1\n        uint256 userIndex = stakeholders.length - 1;\n        // Assign the address to the new index\n        stakeholders[userIndex].user = staker;\n        // Add index to the stakeHolders\n        stakes[staker] = userIndex;\n        return userIndex;\n    }\n\n    function _stake(uint256 _amount) internal {\n        // Simple check so that user does not stake 0\n        require(_amount > 0, \"Cannot stake nothing\");\n\n        // Mappings in solidity creates all values, but empty, so we can just check the address\n        uint256 index = stakes[msg.sender];\n        // block.timestamp = timestamp of the current block in seconds since the epoch\n        uint256 timestamp = block.timestamp;\n        // See if the staker already has a staked index or if its the first time\n        if (index == 0) {\n            // This stakeholder stakes for the first time\n            // We need to add him to the stakeHolders and also map it into the Index of the stakes\n            // The index returned will be the index of the stakeholder in the stakeholders array\n            index = _addStakeholder(msg.sender);\n        }\n\n        // Use the index to push a new Stake\n        // push a newly created Stake with the current block timestamp.\n        uint256 staked = stakeholders[index].amount;\n        if (staked == 0) {\n            staked = _amount;\n        } else {\n            staked = stakeholders[index].amount + _amount;\n        }\n\n        stakeholders[index].amount = staked;\n\n        // Emit an event that the stake has occured\n        emit Staked(msg.sender, _amount, index, timestamp);\n    }\n\n    function _unstake(uint256 _amount) internal {\n        require(_amount > 0, \"Cannot unstake nothing\");\n        uint256 userId = stakes[msg.sender];\n\n        uint256 timestamp = block.timestamp;\n\n        uint256 staked = stakeholders[userId].amount;\n\n        stakeholders[userId].amount = staked - _amount;\n\n        emit Staked(msg.sender, -_amount, userId, timestamp);\n    }\n\n    function stakedBalanceOf(address sender) public view returns (uint256) {\n        uint256 userId = stakes[sender];\n\n        return stakeholders[userId].amount;\n    }\n}\n",
  "sourcePath": "/home/dexter/workspace/orbit-staking/contracts/Stakeable.sol",
  "compiler": {
    "name": "solc",
    "version": "0.7.0+commit.9e61f92b.Emscripten.clang"
  },
  "schemaVersion": "3.4.3",
  "updatedAt": "2021-12-19T20:29:20.827Z",
  "devdoc": {
    "kind": "dev",
    "methods": {},
    "version": 1
  },
  "userdoc": {
    "kind": "user",
    "methods": {},
    "notice": "Stakeable is a contract who is ment to be inherited by other contract that wants Staking capabilities",
    "version": 1
  }
}